{
    "contractName": "Deposit",
    "abi": [
        {
            "inputs": [
                {
                    "internalType": "address",
                    "name": "_poolAddress",
                    "type": "address"
                }
            ],
            "stateMutability": "nonpayable",
            "type": "constructor"
        },
        {
            "inputs": [
                {
                    "internalType": "address",
                    "name": "asset",
                    "type": "address"
                },
                {
                    "internalType": "uint256",
                    "name": "amount",
                    "type": "uint256"
                },
                {
                    "internalType": "address",
                    "name": "spender",
                    "type": "address"
                }
            ],
            "name": "approve",
            "outputs": [],
            "stateMutability": "nonpayable",
            "type": "function"
        },
        {
            "inputs": [
                {
                    "internalType": "address",
                    "name": "asset",
                    "type": "address"
                },
                {
                    "internalType": "uint256",
                    "name": "amount",
                    "type": "uint256"
                }
            ],
            "name": "assetApprovalForPool",
            "outputs": [],
            "stateMutability": "nonpayable",
            "type": "function"
        },
        {
            "inputs": [
                {
                    "internalType": "address",
                    "name": "asset",
                    "type": "address"
                },
                {
                    "internalType": "uint256",
                    "name": "amount",
                    "type": "uint256"
                },
                {
                    "internalType": "address",
                    "name": "onBehalfOf",
                    "type": "address"
                }
            ],
            "name": "deposit",
            "outputs": [],
            "stateMutability": "nonpayable",
            "type": "function"
        },
        {
            "inputs": [],
            "name": "isPaused",
            "outputs": [
                {
                    "internalType": "bool",
                    "name": "",
                    "type": "bool"
                }
            ],
            "stateMutability": "view",
            "type": "function"
        },
        {
            "inputs": [],
            "name": "owner",
            "outputs": [
                {
                    "internalType": "address",
                    "name": "",
                    "type": "address"
                }
            ],
            "stateMutability": "view",
            "type": "function"
        },
        {
            "inputs": [
                {
                    "internalType": "bool",
                    "name": "_isPaused",
                    "type": "bool"
                }
            ],
            "name": "setPaused",
            "outputs": [],
            "stateMutability": "nonpayable",
            "type": "function"
        },
        {
            "inputs": [
                {
                    "internalType": "address",
                    "name": "_poolAddress",
                    "type": "address"
                }
            ],
            "name": "setPoolAddress",
            "outputs": [],
            "stateMutability": "nonpayable",
            "type": "function"
        },
        {
            "inputs": [
                {
                    "internalType": "address",
                    "name": "_wethGatewayAddress",
                    "type": "address"
                }
            ],
            "name": "setWethGatewayAddress",
            "outputs": [],
            "stateMutability": "nonpayable",
            "type": "function"
        },
        {
            "inputs": [],
            "name": "v2PoolAddress",
            "outputs": [
                {
                    "internalType": "address",
                    "name": "",
                    "type": "address"
                }
            ],
            "stateMutability": "view",
            "type": "function"
        },
        {
            "inputs": [
                {
                    "internalType": "address",
                    "name": "asset",
                    "type": "address"
                },
                {
                    "internalType": "uint256",
                    "name": "amount",
                    "type": "uint256"
                },
                {
                    "internalType": "address",
                    "name": "to",
                    "type": "address"
                }
            ],
            "name": "withdrawAsset",
            "outputs": [],
            "stateMutability": "nonpayable",
            "type": "function"
        },
        {
            "inputs": [
                {
                    "internalType": "address",
                    "name": "asset",
                    "type": "address"
                },
                {
                    "internalType": "uint256",
                    "name": "amount",
                    "type": "uint256"
                },
                {
                    "internalType": "address",
                    "name": "to",
                    "type": "address"
                }
            ],
            "name": "withdrawByAToken",
            "outputs": [],
            "stateMutability": "nonpayable",
            "type": "function"
        },
        {
            "inputs": [
                {
                    "internalType": "address",
                    "name": "asset",
                    "type": "address"
                },
                {
                    "internalType": "uint256",
                    "name": "amount",
                    "type": "uint256"
                },
                {
                    "internalType": "address",
                    "name": "to",
                    "type": "address"
                }
            ],
            "name": "withdrawByATokenTransferForm",
            "outputs": [],
            "stateMutability": "nonpayable",
            "type": "function"
        }
    ],
    "bytecode": "60806040526001805460ff60a01b1916905534801561001d57600080fd5b506040516115663803806115668339818101604052602081101561004057600080fd5b5051600080546001600160a01b03199081163317909155600180546001600160a01b03909316928216831790556002805482169092179091556003805490911673dcd33426ba191383f1c9b431a342498fdac734881790556114bf806100a76000396000f3fe608060405234801561001057600080fd5b50600436106100b45760003560e01c80638da5cb5b116100715780638da5cb5b146101c6578063adf39f3f146101ce578063b187bd26146101fa578063e9e15b4f14610216578063f45346dc1461023c578063f91aa0cb14610272576100b4565b80631271f09a146100b957806316c38b3c146100f15780633f397ea81461011057806351f6d92b146101345780637358e8031461016a5780638b75330b14610190575b600080fd5b6100ef600480360360608110156100cf57600080fd5b506001600160a01b038135811691602081013591604090910135166102a8565b005b6100ef6004803603602081101561010757600080fd5b5035151561035e565b6101186103e9565b604080516001600160a01b039092168252519081900360200190f35b6100ef6004803603606081101561014a57600080fd5b506001600160a01b038135811691602081013591604090910135166103f8565b6100ef6004803603602081101561018057600080fd5b50356001600160a01b03166108bb565b6100ef600480360360608110156101a657600080fd5b506001600160a01b03813581169160208101359160409091013516610953565b610118610c2a565b6100ef600480360360408110156101e457600080fd5b506001600160a01b038135169060200135610c39565b610202610ced565b604080519115158252519081900360200190f35b6100ef6004803603602081101561022c57600080fd5b50356001600160a01b0316610cfd565b6100ef6004803603606081101561025257600080fd5b506001600160a01b03813581169160208101359160409091013516610d9f565b6100ef6004803603606081101561028857600080fd5b506001600160a01b03813581169160208101359160409091013516611106565b6000546001600160a01b031633146102bf57600080fd5b6000546001600160a01b031633146102d657600080fd5b826001600160a01b031663095ea7b382846040518363ffffffff1660e01b815260040180836001600160a01b0316815260200182815260200192505050602060405180830381600087803b15801561032d57600080fd5b505af1158015610341573d6000803e3d6000fd5b505050506040513d602081101561035757600080fd5b5050505050565b6000546001600160a01b0316331461037557600080fd5b6000546001600160a01b031633146103cb576040805162461bcd60e51b81526020600482015260146024820152734f6e6c79206f776e65722063616e20706175736560601b604482015290519081900360640190fd5b60018054911515600160a01b0260ff60a01b19909216919091179055565b6001546001600160a01b031681565b600254604080516335ea6a7560e01b81526001600160a01b038681166004830152915160009392909216916335ea6a759160248082019261018092909190829003018186803b15801561044a57600080fd5b505afa15801561045e573d6000803e3d6000fd5b505050506040513d61018081101561047557600080fd5b5060e0015160025460408051635c975abb60e01b815290519293503092849288926001600160a01b0390911691635c975abb91600480820192602092909190829003018186803b1580156104c857600080fd5b505afa1580156104dc573d6000803e3d6000fd5b505050506040513d60208110156104f257600080fd5b505115610540576040805162461bcd60e51b815260206004820152601760248201527610585d994818dbdb9d1c9858dd081a5cc81c185d5cd959604a1b604482015290519081900360640190fd5b600154600160a01b900460ff161561059c576040805162461bcd60e51b815260206004820152601a60248201527911195c1bdcda5d0818dbdb9d1c9858dd081a5cc81c185d5cd95960321b604482015290519081900360640190fd5b85826001600160a01b03166370a08231336040518263ffffffff1660e01b815260040180826001600160a01b0316815260200191505060206040518083038186803b1580156105ea57600080fd5b505afa1580156105fe573d6000803e3d6000fd5b505050506040513d602081101561061457600080fd5b50511015610660576040805162461bcd60e51b8152602060048201526014602482015273496e73756666696369656e742062616c616e636560601b604482015290519081900360640190fd5b60408051636eb1769f60e11b81523360048201526001600160a01b0385811660248301529151889285169163dd62ed3e916044808301926020929190829003018186803b1580156106b057600080fd5b505afa1580156106c4573d6000803e3d6000fd5b505050506040513d60208110156106da57600080fd5b50511015610724576040805162461bcd60e51b8152602060048201526012602482015271105b1b1bddd85b98d9481c995c5d5a5c995960721b604482015290519081900360640190fd5b604080516323b872dd60e01b81523360048201526001600160a01b038581166024830152604482018990529151918416916323b872dd916064808201926020929091908290030181600087803b15801561077d57600080fd5b505af1158015610791573d6000803e3d6000fd5b505050506040513d60208110156107a757600080fd5b505060025460408051631a4ca37b60e21b81526001600160a01b038a81166004830152602482018a90528681166044830152915191909216916369328dec91606480830192600092919082900301818387803b15801561080657600080fd5b505af115801561081a573d6000803e3d6000fd5b50505050806001600160a01b03166323b872dd8487896040518463ffffffff1660e01b815260040180846001600160a01b03168152602001836001600160a01b031681526020018281526020019350505050602060405180830381600087803b15801561088657600080fd5b505af115801561089a573d6000803e3d6000fd5b505050506040513d60208110156108b057600080fd5b505050505050505050565b6000546001600160a01b031633146108d257600080fd5b6000546001600160a01b03163314610931576040805162461bcd60e51b815260206004820152601f60248201527f4f6e6c79206f776e65722063616e2073657420706f6f6c206164647265737300604482015290519081900360640190fd5b600380546001600160a01b0319166001600160a01b0392909216919091179055565b60025460408051635c975abb60e01b8152905185926001600160a01b031691635c975abb916004808301926020929190829003018186803b15801561099757600080fd5b505afa1580156109ab573d6000803e3d6000fd5b505050506040513d60208110156109c157600080fd5b505115610a0f576040805162461bcd60e51b815260206004820152601760248201527610585d994818dbdb9d1c9858dd081a5cc81c185d5cd959604a1b604482015290519081900360640190fd5b600154600160a01b900460ff1615610a6b576040805162461bcd60e51b815260206004820152601a60248201527911195c1bdcda5d0818dbdb9d1c9858dd081a5cc81c185d5cd95960321b604482015290519081900360640190fd5b60408051636eb1769f60e11b8152306004820152336024820152905184916001600160a01b0384169163dd62ed3e91604480820192602092909190829003018186803b158015610aba57600080fd5b505afa158015610ace573d6000803e3d6000fd5b505050506040513d6020811015610ae457600080fd5b50511015610b2e576040805162461bcd60e51b8152602060048201526012602482015271105b1b1bddd85b98d9481c995c5d5a5c995960721b604482015290519081900360640190fd5b60025460408051631a4ca37b60e21b81526001600160a01b03878116600483015260248201879052306044830152915191909216916369328dec91606480830192600092919082900301818387803b158015610b8957600080fd5b505af1158015610b9d573d6000803e3d6000fd5b50505050806001600160a01b031663a9059cbb83856040518363ffffffff1660e01b815260040180836001600160a01b0316815260200182815260200192505050602060405180830381600087803b158015610bf857600080fd5b505af1158015610c0c573d6000803e3d6000fd5b505050506040513d6020811015610c2257600080fd5b505050505050565b6000546001600160a01b031681565b6000546001600160a01b03163314610c5057600080fd5b6000546001600160a01b03163314610c6757600080fd5b6001546040805163095ea7b360e01b81526001600160a01b0392831660048201526024810184905290519184169163095ea7b3916044808201926020929091908290030181600087803b158015610cbd57600080fd5b505af1158015610cd1573d6000803e3d6000fd5b505050506040513d6020811015610ce757600080fd5b50505050565b600154600160a01b900460ff1681565b6000546001600160a01b03163314610d1457600080fd5b6000546001600160a01b03163314610d73576040805162461bcd60e51b815260206004820152601f60248201527f4f6e6c79206f776e65722063616e2073657420706f6f6c206164647265737300604482015290519081900360640190fd5b600180546001600160a01b039092166001600160a01b0319928316811790915560028054909216179055565b60408051636eb1769f60e11b8152336004820152306024820152905183916001600160a01b0386169163dd62ed3e91604480820192602092909190829003018186803b158015610dee57600080fd5b505afa158015610e02573d6000803e3d6000fd5b505050506040513d6020811015610e1857600080fd5b50511015610e62576040805162461bcd60e51b8152602060048201526012602482015271105b1b1bddd85b98d9481c995c5d5a5c995960721b604482015290519081900360640190fd5b600260009054906101000a90046001600160a01b03166001600160a01b0316635c975abb6040518163ffffffff1660e01b815260040160206040518083038186803b158015610eb057600080fd5b505afa158015610ec4573d6000803e3d6000fd5b505050506040513d6020811015610eda57600080fd5b505115610f28576040805162461bcd60e51b815260206004820152601760248201527610585d994818dbdb9d1c9858dd081a5cc81c185d5cd959604a1b604482015290519081900360640190fd5b600154600160a01b900460ff1615610f84576040805162461bcd60e51b815260206004820152601a60248201527911195c1bdcda5d0818dbdb9d1c9858dd081a5cc81c185d5cd95960321b604482015290519081900360640190fd5b6001546040805163095ea7b360e01b81526001600160a01b0392831660048201526024810185905290519185169163095ea7b3916044808201926020929091908290030181600087803b158015610fda57600080fd5b505af1158015610fee573d6000803e3d6000fd5b505050506040513d602081101561100457600080fd5b5050604080516323b872dd60e01b81523360048201523060248201526044810184905290516001600160a01b038516916323b872dd9160648083019260209291908290030181600087803b15801561105b57600080fd5b505af115801561106f573d6000803e3d6000fd5b505050506040513d602081101561108557600080fd5b50506002546040805163e8eda9df60e01b81526001600160a01b038681166004830152602482018690528481166044830152600060648301819052925193169263e8eda9df9260848084019391929182900301818387803b1580156110e957600080fd5b505af11580156110fd573d6000803e3d6000fd5b50505050505050565b600254604080516335ea6a7560e01b81526001600160a01b038681166004830152915160009392909216916335ea6a759160248082019261018092909190829003018186803b15801561115857600080fd5b505afa15801561116c573d6000803e3d6000fd5b505050506040513d61018081101561118357600080fd5b5060e0015160025460408051635c975abb60e01b815290519293503092849288926001600160a01b0390911691635c975abb91600480820192602092909190829003018186803b1580156111d657600080fd5b505afa1580156111ea573d6000803e3d6000fd5b505050506040513d602081101561120057600080fd5b50511561124e576040805162461bcd60e51b815260206004820152601760248201527610585d994818dbdb9d1c9858dd081a5cc81c185d5cd959604a1b604482015290519081900360640190fd5b600154600160a01b900460ff16156112aa576040805162461bcd60e51b815260206004820152601a60248201527911195c1bdcda5d0818dbdb9d1c9858dd081a5cc81c185d5cd95960321b604482015290519081900360640190fd5b85826001600160a01b03166370a08231336040518263ffffffff1660e01b815260040180826001600160a01b0316815260200191505060206040518083038186803b1580156112f857600080fd5b505afa15801561130c573d6000803e3d6000fd5b505050506040513d602081101561132257600080fd5b5051101561136e576040805162461bcd60e51b8152602060048201526014602482015273496e73756666696369656e742062616c616e636560601b604482015290519081900360640190fd5b60408051636eb1769f60e11b81523360048201526001600160a01b0385811660248301529151889285169163dd62ed3e916044808301926020929190829003018186803b1580156113be57600080fd5b505afa1580156113d2573d6000803e3d6000fd5b505050506040513d60208110156113e857600080fd5b50511015611432576040805162461bcd60e51b8152602060048201526012602482015271105b1b1bddd85b98d9481c995c5d5a5c995960721b604482015290519081900360640190fd5b816001600160a01b031663a9059cbb84886040518363ffffffff1660e01b815260040180836001600160a01b0316815260200182815260200192505050602060405180830381600087803b15801561077d57600080fdfea26469706673582212204c9e4883c44e1d301b91d2ce86bbf27f1aa1eb48707abfbe9a40251a6f9820b964736f6c634300060c0033",
    "sourcePath": "c:/Users/watch_/Documents/Development/sentible.ai/invest-pools/src/contracts/deposit.sol",
    "compiler": {
        "name": "solc",
        "version": "0.6.12+commit.27d51765"
    },
    "functionHashes": {
        "approve(address,uint256,address)": "1271f09a",
        "assetApprovalForPool(address,uint256)": "adf39f3f",
        "deposit(address,uint256,address)": "f45346dc",
        "isPaused()": "b187bd26",
        "owner()": "8da5cb5b",
        "setPaused(bool)": "16c38b3c",
        "setPoolAddress(address)": "e9e15b4f",
        "setWethGatewayAddress(address)": "7358e803",
        "v2PoolAddress()": "3f397ea8",
        "withdrawAsset(address,uint256,address)": "8b75330b",
        "withdrawByAToken(address,uint256,address)": "f91aa0cb",
        "withdrawByATokenTransferForm(address,uint256,address)": "51f6d92b"
    },
    "gasEstimates": {
        "creation": {
            "codeDepositCost": "1062200",
            "executionCost": "infinite",
            "totalCost": "infinite"
        },
        "external": {
            "approve(address,uint256,address)": "infinite",
            "assetApprovalForPool(address,uint256)": "infinite",
            "deposit(address,uint256,address)": "infinite",
            "isPaused()": "1071",
            "owner()": "1037",
            "setPaused(bool)": "22760",
            "setPoolAddress(address)": "43640",
            "setWethGatewayAddress(address)": "22842",
            "v2PoolAddress()": "1082",
            "withdrawAsset(address,uint256,address)": "infinite",
            "withdrawByAToken(address,uint256,address)": "infinite",
            "withdrawByATokenTransferForm(address,uint256,address)": "infinite"
        }
    }
}