{
    "contractName": "Deposit",
    "abi": [
        {
            "inputs": [],
            "stateMutability": "nonpayable",
            "type": "constructor"
        },
        {
            "inputs": [
                {
                    "internalType": "address",
                    "name": "asset",
                    "type": "address"
                },
                {
                    "internalType": "uint256",
                    "name": "amount",
                    "type": "uint256"
                },
                {
                    "internalType": "address",
                    "name": "spender",
                    "type": "address"
                }
            ],
            "name": "approveAsset",
            "outputs": [],
            "stateMutability": "nonpayable",
            "type": "function"
        },
        {
            "inputs": [
                {
                    "internalType": "address",
                    "name": "asset",
                    "type": "address"
                },
                {
                    "internalType": "uint256",
                    "name": "amount",
                    "type": "uint256"
                },
                {
                    "internalType": "address",
                    "name": "onBehalfOf",
                    "type": "address"
                }
            ],
            "name": "deposit",
            "outputs": [],
            "stateMutability": "payable",
            "type": "function"
        },
        {
            "inputs": [],
            "name": "isPaused",
            "outputs": [
                {
                    "internalType": "bool",
                    "name": "",
                    "type": "bool"
                }
            ],
            "stateMutability": "view",
            "type": "function"
        },
        {
            "inputs": [
                {
                    "internalType": "bool",
                    "name": "_isPaused",
                    "type": "bool"
                }
            ],
            "name": "setPaused",
            "outputs": [],
            "stateMutability": "nonpayable",
            "type": "function"
        },
        {
            "inputs": [
                {
                    "internalType": "address",
                    "name": "_poolAddress",
                    "type": "address"
                }
            ],
            "name": "setPoolAddress",
            "outputs": [],
            "stateMutability": "nonpayable",
            "type": "function"
        },
        {
            "inputs": [],
            "name": "v2PoolAddress",
            "outputs": [
                {
                    "internalType": "address",
                    "name": "",
                    "type": "address"
                }
            ],
            "stateMutability": "view",
            "type": "function"
        },
        {
            "inputs": [
                {
                    "internalType": "address",
                    "name": "asset",
                    "type": "address"
                },
                {
                    "internalType": "uint256",
                    "name": "amount",
                    "type": "uint256"
                },
                {
                    "internalType": "address",
                    "name": "to",
                    "type": "address"
                }
            ],
            "name": "withdraw",
            "outputs": [],
            "stateMutability": "nonpayable",
            "type": "function"
        }
    ],
    "bytecode": "60806040526001805460ff60a01b198116909155600280546001600160a01b039092166001600160a01b031992831681179091556003805490921617905534801561004957600080fd5b50600080546001600160a01b0319908116331790915560018054909116737d2768de32b0b80b7a3454c06bdac94a69ddc7a9179055610aba8061008d6000396000f3fe6080604052600436106100705760003560e01c806369328dec1161004e57806369328dec14610117578063b187bd261461015a578063e9e15b4f14610183578063f45346dc146101b657610070565b806316c38b3c146100755780633ddebdcf146100a35780633f397ea8146100e6575b600080fd5b34801561008157600080fd5b506100a16004803603602081101561009857600080fd5b503515156101ec565b005b3480156100af57600080fd5b506100a1600480360360608110156100c657600080fd5b506001600160a01b03813581169160208101359160409091013516610277565b3480156100f257600080fd5b506100fb61032d565b604080516001600160a01b039092168252519081900360200190f35b34801561012357600080fd5b506100a16004803603606081101561013a57600080fd5b506001600160a01b0381358116916020810135916040909101351661033c565b34801561016657600080fd5b5061016f610658565b604080519115158252519081900360200190f35b34801561018f57600080fd5b506100a1600480360360208110156101a657600080fd5b50356001600160a01b0316610668565b6100a1600480360360608110156101cc57600080fd5b506001600160a01b03813581169160208101359160409091013516610714565b6000546001600160a01b0316331461020357600080fd5b6000546001600160a01b03163314610259576040805162461bcd60e51b81526020600482015260146024820152734f6e6c79206f776e65722063616e20706175736560601b604482015290519081900360640190fd5b60018054911515600160a01b0260ff60a01b19909216919091179055565b6000546001600160a01b0316331461028e57600080fd5b6000546001600160a01b031633146102a557600080fd5b826001600160a01b031663095ea7b382846040518363ffffffff1660e01b815260040180836001600160a01b0316815260200182815260200192505050602060405180830381600087803b1580156102fc57600080fd5b505af1158015610310573d6000803e3d6000fd5b505050506040513d602081101561032657600080fd5b5050505050565b6001546001600160a01b031681565b60025460408051635c975abb60e01b8152905185926001600160a01b031691635c975abb916004808301926020929190829003018186803b15801561038057600080fd5b505afa158015610394573d6000803e3d6000fd5b505050506040513d60208110156103aa57600080fd5b5051156103f8576040805162461bcd60e51b815260206004820152601760248201527610585d994818dbdb9d1c9858dd081a5cc81c185d5cd959604a1b604482015290519081900360640190fd5b600154600160a01b900460ff1615610457576040805162461bcd60e51b815260206004820152601a60248201527f4465706f73697420636f6e747261637420697320706175736564000000000000604482015290519081900360640190fd5b604080516323b872dd60e01b81523360048201523060248201526044810185905290516001600160a01b038316916323b872dd9160648083019260209291908290030181600087803b1580156104ac57600080fd5b505af11580156104c0573d6000803e3d6000fd5b505050506040513d60208110156104d657600080fd5b50506001546040805163095ea7b360e01b81526001600160a01b0392831660048201526024810186905290519183169163095ea7b3916044808201926020929091908290030181600087803b15801561052e57600080fd5b505af1158015610542573d6000803e3d6000fd5b505050506040513d602081101561055857600080fd5b505060025460408051631a4ca37b60e21b81526001600160a01b03848116600483015260248201879052306044830152915191909216916369328dec91606480830192600092919082900301818387803b1580156105b557600080fd5b505af11580156105c9573d6000803e3d6000fd5b5050604080516323b872dd60e01b81523060048201526001600160a01b03868116602483015260448201889052915191851693506323b872dd92506064808201926020929091908290030181600087803b15801561062657600080fd5b505af115801561063a573d6000803e3d6000fd5b505050506040513d602081101561065057600080fd5b505050505050565b600154600160a01b900460ff1681565b6000546001600160a01b0316331461067f57600080fd5b6000546001600160a01b031633146106de576040805162461bcd60e51b815260206004820152601f60248201527f4f6e6c79206f776e65722063616e2073657420706f6f6c206164647265737300604482015290519081900360640190fd5b600180546001600160a01b039092166001600160a01b031992831681179091556002805483168217905560038054909216179055565b60408051636eb1769f60e11b815230600482015233602482015290516000916001600160a01b0386169163dd62ed3e91604480820192602092909190829003018186803b15801561076457600080fd5b505afa158015610778573d6000803e3d6000fd5b505050506040513d602081101561078e57600080fd5b50519050828111156107dc576040805162461bcd60e51b8152602060048201526012602482015271105b1b1bddd85b98d9481c995c5d5a5c995960721b604482015290519081900360640190fd5b600260009054906101000a90046001600160a01b03166001600160a01b0316635c975abb6040518163ffffffff1660e01b815260040160206040518083038186803b15801561082a57600080fd5b505afa15801561083e573d6000803e3d6000fd5b505050506040513d602081101561085457600080fd5b5051156108a2576040805162461bcd60e51b815260206004820152601760248201527610585d994818dbdb9d1c9858dd081a5cc81c185d5cd959604a1b604482015290519081900360640190fd5b600154600160a01b900460ff1615610901576040805162461bcd60e51b815260206004820152601a60248201527f4465706f73697420636f6e747261637420697320706175736564000000000000604482015290519081900360640190fd5b6001546040805163095ea7b360e01b81526001600160a01b0392831660048201526024810186905290519186169163095ea7b3916044808201926020929091908290030181600087803b15801561095757600080fd5b505af115801561096b573d6000803e3d6000fd5b505050506040513d602081101561098157600080fd5b5050604080516323b872dd60e01b81523360048201523060248201526044810185905290516001600160a01b038616916323b872dd9160648083019260209291908290030181600087803b1580156109d857600080fd5b505af11580156109ec573d6000803e3d6000fd5b505050506040513d6020811015610a0257600080fd5b50506002546040805163e8eda9df60e01b81526001600160a01b038781166004830152602482018790528581166044830152600060648301819052925193169263e8eda9df9260848084019391929182900301818387803b158015610a6657600080fd5b505af1158015610a7a573d6000803e3d6000fd5b505050505050505056fea26469706673582212207f9ba8e8c243e500877b8453eacf554277d1a731628bf06fd6106c68eb263d7f64736f6c634300060c0033",
    "sourcePath": "c:/Users/watch_/Documents/Development/sentible.ai/invest-pools/src/contracts/deposit.sol",
    "compiler": {
        "name": "solc",
        "version": "0.6.12+commit.27d51765"
    },
    "functionHashes": {
        "approveAsset(address,uint256,address)": "3ddebdcf",
        "deposit(address,uint256,address)": "f45346dc",
        "isPaused()": "b187bd26",
        "setPaused(bool)": "16c38b3c",
        "setPoolAddress(address)": "e9e15b4f",
        "v2PoolAddress()": "3f397ea8",
        "withdraw(address,uint256,address)": "69328dec"
    },
    "gasEstimates": {
        "creation": {
            "codeDepositCost": "549200",
            "executionCost": "104769",
            "totalCost": "653969"
        },
        "external": {
            "approveAsset(address,uint256,address)": "infinite",
            "deposit(address,uint256,address)": "infinite",
            "isPaused()": "1049",
            "setPaused(bool)": "22738",
            "setPoolAddress(address)": "64439",
            "v2PoolAddress()": "1082",
            "withdraw(address,uint256,address)": "infinite"
        }
    }
}