{
    "contractName": "SentibleRouterV1",
    "abi": [
        {
            "inputs": [],
            "stateMutability": "nonpayable",
            "type": "constructor"
        },
        {
            "anonymous": false,
            "inputs": [
                {
                    "indexed": false,
                    "internalType": "address",
                    "name": "owner",
                    "type": "address"
                },
                {
                    "indexed": false,
                    "internalType": "uint256",
                    "name": "amount",
                    "type": "uint256"
                },
                {
                    "indexed": false,
                    "internalType": "address",
                    "name": "asset",
                    "type": "address"
                }
            ],
            "name": "Deposit",
            "type": "event"
        },
        {
            "anonymous": false,
            "inputs": [
                {
                    "indexed": false,
                    "internalType": "address",
                    "name": "owner",
                    "type": "address"
                },
                {
                    "indexed": false,
                    "internalType": "uint256",
                    "name": "amount",
                    "type": "uint256"
                },
                {
                    "indexed": false,
                    "internalType": "address",
                    "name": "asset",
                    "type": "address"
                }
            ],
            "name": "Withdraw",
            "type": "event"
        },
        {
            "inputs": [
                {
                    "internalType": "address",
                    "name": "asset",
                    "type": "address"
                },
                {
                    "internalType": "uint256",
                    "name": "amount",
                    "type": "uint256"
                }
            ],
            "name": "approvePool",
            "outputs": [],
            "stateMutability": "nonpayable",
            "type": "function"
        },
        {
            "inputs": [
                {
                    "internalType": "address",
                    "name": "asset",
                    "type": "address"
                },
                {
                    "internalType": "uint256",
                    "name": "amount",
                    "type": "uint256"
                },
                {
                    "internalType": "address",
                    "name": "spender",
                    "type": "address"
                }
            ],
            "name": "approveSpender",
            "outputs": [],
            "stateMutability": "nonpayable",
            "type": "function"
        },
        {
            "inputs": [
                {
                    "internalType": "address",
                    "name": "asset",
                    "type": "address"
                },
                {
                    "internalType": "uint256",
                    "name": "amount",
                    "type": "uint256"
                },
                {
                    "internalType": "address",
                    "name": "onBehalfOf",
                    "type": "address"
                }
            ],
            "name": "deposit",
            "outputs": [],
            "stateMutability": "nonpayable",
            "type": "function"
        },
        {
            "inputs": [],
            "name": "isPaused",
            "outputs": [
                {
                    "internalType": "bool",
                    "name": "",
                    "type": "bool"
                }
            ],
            "stateMutability": "view",
            "type": "function"
        },
        {
            "inputs": [],
            "name": "lendingPoolAddress",
            "outputs": [
                {
                    "internalType": "address",
                    "name": "",
                    "type": "address"
                }
            ],
            "stateMutability": "view",
            "type": "function"
        },
        {
            "inputs": [],
            "name": "owner",
            "outputs": [
                {
                    "internalType": "address",
                    "name": "",
                    "type": "address"
                }
            ],
            "stateMutability": "view",
            "type": "function"
        },
        {
            "inputs": [
                {
                    "internalType": "bool",
                    "name": "_isPaused",
                    "type": "bool"
                }
            ],
            "name": "setPaused",
            "outputs": [],
            "stateMutability": "nonpayable",
            "type": "function"
        },
        {
            "inputs": [
                {
                    "internalType": "address",
                    "name": "_poolAddress",
                    "type": "address"
                }
            ],
            "name": "setPoolAddress",
            "outputs": [],
            "stateMutability": "nonpayable",
            "type": "function"
        },
        {
            "inputs": [
                {
                    "internalType": "address",
                    "name": "asset",
                    "type": "address"
                },
                {
                    "internalType": "uint256",
                    "name": "amount",
                    "type": "uint256"
                },
                {
                    "internalType": "address",
                    "name": "to",
                    "type": "address"
                }
            ],
            "name": "withdraw",
            "outputs": [],
            "stateMutability": "nonpayable",
            "type": "function"
        }
    ],
    "bytecode": "60806040526001805460ff60a01b1916905534801561001d57600080fd5b50600080546001600160a01b03199081163317909155600180548216737d2768de32b0b80b7a3454c06bdac94a69ddc7a990811790915560028054909216179055610dfc8061006d6000396000f3fe608060405234801561001057600080fd5b50600436106100935760003560e01c8063cddf2c6e11610066578063cddf2c6e146100f3578063d3ae26b314610106578063de5707cd1461010e578063e9e15b4f14610121578063f45346dc1461013457610093565b806316c38b3c1461009857806369328dec146100ad5780638da5cb5b146100c0578063b187bd26146100de575b600080fd5b6100ab6100a6366004610a49565b610147565b005b6100ab6100bb366004610a08565b6101c2565b6100c8610450565b6040516100d59190610b85565b60405180910390f35b6100e661045f565b6040516100d59190610c40565b6100ab6101013660046109dd565b61046f565b6100c8610524565b6100ab61011c366004610a08565b610533565b6100ab61012f3660046109ba565b6105e3565b6100ab610142366004610a08565b610663565b6000546001600160a01b0316331461017a5760405162461bcd60e51b815260040161017190610c82565b60405180910390fd5b6000546001600160a01b031633146101a45760405162461bcd60e51b815260040161017190610d5d565b60018054911515600160a01b0260ff60a01b19909216919091179055565b600260009054906101000a90046001600160a01b03166001600160a01b0316635c975abb6040518163ffffffff1660e01b815260040160206040518083038186803b15801561021057600080fd5b505afa158015610224573d6000803e3d6000fd5b505050506040513d601f19601f820116820180604052508101906102489190610a65565b156102655760405162461bcd60e51b815260040161017190610d26565b600154600160a01b900460ff161561028f5760405162461bcd60e51b815260040161017190610c4b565b6002546040516335ea6a7560e01b81526000916001600160a01b0316906335ea6a75906102c0908790600401610b85565b6101806040518083038186803b1580156102d957600080fd5b505afa1580156102ed573d6000803e3d6000fd5b505050506040513d601f19601f820116820180604052508101906103119190610a99565b50506040516323b872dd60e01b8152929a503099508a9850506001600160a01b03881696506323b872dd955061035494503393508892508b916004019050610bb3565b602060405180830381600087803b15801561036e57600080fd5b505af1158015610382573d6000803e3d6000fd5b505050506040513d601f19601f820116820180604052508101906103a69190610a65565b50600254604051631a4ca37b60e21b81526001600160a01b03909116906369328dec906103db90899089908990600401610bd7565b600060405180830381600087803b1580156103f557600080fd5b505af1158015610409573d6000803e3d6000fd5b505050507f56c54ba9bd38d8fd62012e42c7ee564519b09763c426d331b3661b537ead19b233868860405161044093929190610bd7565b60405180910390a1505050505050565b6000546001600160a01b031681565b600154600160a01b900460ff1681565b6000546001600160a01b031633146104995760405162461bcd60e51b815260040161017190610c82565b60015460405163095ea7b360e01b81526001600160a01b038481169263095ea7b3926104cd92909116908590600401610bfa565b602060405180830381600087803b1580156104e757600080fd5b505af11580156104fb573d6000803e3d6000fd5b505050506040513d601f19601f8201168201806040525081019061051f9190610a65565b505050565b6001546001600160a01b031681565b6000546001600160a01b0316331461055d5760405162461bcd60e51b815260040161017190610c82565b60405163095ea7b360e01b81526001600160a01b0384169063095ea7b39061058b9084908690600401610bfa565b602060405180830381600087803b1580156105a557600080fd5b505af11580156105b9573d6000803e3d6000fd5b505050506040513d601f19601f820116820180604052508101906105dd9190610a65565b50505050565b6000546001600160a01b0316331461060d5760405162461bcd60e51b815260040161017190610c82565b6000546001600160a01b031633146106375760405162461bcd60e51b815260040161017190610cc3565b600180546001600160a01b039092166001600160a01b0319928316811790915560028054909216179055565b600260009054906101000a90046001600160a01b03166001600160a01b0316635c975abb6040518163ffffffff1660e01b815260040160206040518083038186803b1580156106b157600080fd5b505afa1580156106c5573d6000803e3d6000fd5b505050506040513d601f19601f820116820180604052508101906106e99190610a65565b156107065760405162461bcd60e51b815260040161017190610d26565b600154600160a01b900460ff16156107305760405162461bcd60e51b815260040161017190610c4b565b604051636eb1769f60e11b815282906001600160a01b0385169063dd62ed3e906107609033903090600401610b99565b60206040518083038186803b15801561077857600080fd5b505afa15801561078c573d6000803e3d6000fd5b505050506040513d601f19601f820116820180604052508101906107b09190610a81565b10156107ce5760405162461bcd60e51b815260040161017190610cfa565b60015460405163095ea7b360e01b81526001600160a01b038581169263095ea7b39261080292909116908690600401610bfa565b602060405180830381600087803b15801561081c57600080fd5b505af1158015610830573d6000803e3d6000fd5b505050506040513d601f19601f820116820180604052508101906108549190610a65565b506040516323b872dd60e01b81526001600160a01b038416906323b872dd9061088590339030908790600401610bb3565b602060405180830381600087803b15801561089f57600080fd5b505af11580156108b3573d6000803e3d6000fd5b505050506040513d601f19601f820116820180604052508101906108d79190610a65565b5060025460405163e8eda9df60e01b81526001600160a01b039091169063e8eda9df9061090f90869086908690600090600401610c13565b600060405180830381600087803b15801561092957600080fd5b505af115801561093d573d6000803e3d6000fd5b505050507fe31c7b8d08ee7db0afa68782e1028ef92305caeea8626633ad44d413e30f6b2f33838560405161097493929190610bd7565b60405180910390a1505050565b805161098c81610d8b565b92915050565b80516001600160801b038116811461098c57600080fd5b805160ff8116811461098c57600080fd5b6000602082840312156109cb578081fd5b81356109d681610d8b565b9392505050565b600080604083850312156109ef578081fd5b82356109fa81610d8b565b946020939093013593505050565b600080600060608486031215610a1c578081fd5b8335610a2781610d8b565b9250602084013591506040840135610a3e81610d8b565b809150509250925092565b600060208284031215610a5a578081fd5b81356109d681610da3565b600060208284031215610a76578081fd5b81516109d681610da3565b600060208284031215610a92578081fd5b5051919050565b6000806000806000806000806000806000806101808d8f031215610abb578788fd5b8c519b5060208d0151610acd81610db1565b60408e0151909b50610ade81610db1565b9950610aed8e60608f01610992565b9850610afc8e60808f01610992565b9750610b0b8e60a08f01610992565b965060c08d015164ffffffffff81168114610b24578687fd5b9550610b338e60e08f01610981565b9450610b438e6101008f01610981565b9350610b538e6101208f01610981565b9250610b638e6101408f01610981565b9150610b738e6101608f016109a9565b90509295989b509295989b509295989b565b6001600160a01b0391909116815260200190565b6001600160a01b0392831681529116602082015260400190565b6001600160a01b039384168152919092166020820152604081019190915260600190565b6001600160a01b0393841681526020810192909252909116604082015260600190565b6001600160a01b03929092168252602082015260400190565b6001600160a01b03948516815260208101939093529216604082015261ffff909116606082015260800190565b901515815260200190565b6020808252601b908201527f53656e7469626c6520636f6e7472616374206973207061757365640000000000604082015260600190565b60208082526021908201527f4f6e6c79206f776e65722063616e2063616c6c20746869732066756e6374696f6040820152603760f91b606082015260800190565b6020808252601f908201527f4f6e6c79206f776e65722063616e2073657420706f6f6c206164647265737300604082015260600190565b602080825260129082015271105b1b1bddd85b98d9481c995c5d5a5c995960721b604082015260600190565b60208082526017908201527f4161766520636f6e747261637420697320706175736564000000000000000000604082015260600190565b6020808252601490820152734f6e6c79206f776e65722063616e20706175736560601b604082015260600190565b6001600160a01b0381168114610da057600080fd5b50565b8015158114610da057600080fd5b6001600160801b0381168114610da057600080fdfea264697066735822122028dee7661142fbc5acf6a30f099420ce9e81066d266bcf5e0261cd2a80cf664264736f6c634300060c0033",
    "sourcePath": "c:/Users/watch_/Documents/Development/sentible.ai/invest-pools/src/contracts/deposit.sol",
    "compiler": {
        "name": "solc",
        "version": "0.6.12+commit.27d51765"
    },
    "functionHashes": {
        "approvePool(address,uint256)": "cddf2c6e",
        "approveSpender(address,uint256,address)": "de5707cd",
        "deposit(address,uint256,address)": "f45346dc",
        "isPaused()": "b187bd26",
        "lendingPoolAddress()": "d3ae26b3",
        "owner()": "8da5cb5b",
        "setPaused(bool)": "16c38b3c",
        "setPoolAddress(address)": "e9e15b4f",
        "withdraw(address,uint256,address)": "69328dec"
    },
    "gasEstimates": {
        "creation": {
            "codeDepositCost": "716000",
            "executionCost": "84066",
            "totalCost": "800066"
        },
        "external": {
            "approvePool(address,uint256)": "infinite",
            "approveSpender(address,uint256,address)": "infinite",
            "deposit(address,uint256,address)": "infinite",
            "isPaused()": "1124",
            "lendingPoolAddress()": "1092",
            "owner()": "1115",
            "setPaused(bool)": "22830",
            "setPoolAddress(address)": "43732",
            "withdraw(address,uint256,address)": "infinite"
        }
    }
}